:100000000C945A000C9482000C9482000C94820090
:100010000C9482000C9482000C9482000C94820058
:100020000C9482000C9482000C9482000C94820048
:100030000C9482000C9482000C9482000C94820038
:100040000C94CA060C9482000C943D0A0C94790A14
:100050000C9482000C9482000C9482000C94820018
:100060000C9439050C948200000000070002010086
:100070000003040600000000000000000102040864
:100080001020408001020408102001020408102002
:10009000040404040404040402020202020203032E
:1000A0000303030300000000250028002B002C019F
:1000B0005604340B11241FBECFEFD8E0DEBFCDBFF6
:1000C00011E0A0E0B1E0E0E3FCE102C005900D9298
:1000D000A238B107D9F713E0A2E8B1E001C01D9240
:1000E000AA33B107E1F710E0C4EBD0E004C02297D7
:1000F000FE010E94120ECE3AD107C9F70E94940960
:100100000C94160E0C94000040E855E260E070E09C
:1001100083E992E00E94B40A60E071E083E992E032
:100120000E94F60760E476E086E891E00E944C01C8
:1001300066E980918401909185010E94670266E9D9
:1001400080918201909183010E94670261E0809119
:100150008401909185010E943A0261E080918201C0
:10016000909183010E943A0264E080918401909111
:1001700085010E943A0264E080918201909183019E
:100180000C943A02CF9369E271E083E992E00E9415
:10019000D7076FEF80918401909185010E946702DB
:1001A0006FEF80918201909183010E94670261E06C
:1001B00080918401909185010E943A0261E08091D2
:1001C0008201909183010E943A0268E873E180E025
:1001D00090E00E943E076EE271E083E992E00E94A7
:1001E000D70762E080918401909185010E943A02D4
:1001F000C0E06C2F80918401909185010E9467027C
:100200006AE070E080E090E00E943E07CF5FCF3F61
:1002100081F76C2F80918401909185010E94670283
:100220006AE070E080E090E00E943E07C15089F7EC
:1002300063E371E083E992E00E94D70764E0809174
:100240008401909185010E943A0268EE73E080E09B
:1002500090E0CF910C943E0760E686E891E00E9422
:10026000F20161E086E891E00E949A019093850195
:100270008093840162E086E891E00E949A01909365
:10028000830180938201089520E030E040E050E057
:100290008D5B9F4F0C947B02EF92FF920F931F9305
:1002A000CF93DF938C017B018AEC91E00E941C04C8
:1002B000E801CD5BDF4FCE010E947403F801F282AA
:1002C000E182B70180E090E00E94860CAB01BC01A6
:1002D000CE010E94050310E020E030E040E050E055
:1002E000612FCE010E947B021F5F1031A9F7DF91C1
:1002F000CF911F910F91FF90EF9008959A018D5B20
:100300009F4F211540E1340728F020E030E040E025
:1003100050E102C040E050E00C947B02411102C069
:100320000C94440120E030E040E050E18D5B9F4FB1
:100330000C947B02CF93653008F047C06150C6E053
:10034000462F50E0FC01C69FE00DF11D11242085D1
:10035000211130C060879A012F5F3F4FC29FF0018B
:10036000C39FF00D1124E80FF91F9183808366234A
:1003700039F0613049F0623059F0633081F40CC0DB
:1003800079E0AAE0B8E00BC07CE0ABE0BDE007C0DC
:1003900073E0A4E0B2E003C076E0A5E0B7E026E0B9
:1003A000249FF001259FF00D1124E80FF91FB3835E
:1003B000A483758366E0649F9001659F300D1124CE
:1003C0002D5F3F4F280F391F02C020E030E0C901E8
:1003D000CF910895FC01148213821582128211823A
:1003E00010820895BF92CF92DF92EF92FF920F9307
:1003F0001F93CF93DF931F92CDB7DEB78C01B62E3C
:100400007C0183E0E80EF11C6801EBE1CE0ED11C0B
:10041000C7010E94EA01F6E0EF0EF11CEC14FD04A6
:10042000B9F7F80113A616A612A611A617AEEE5B31
:10043000FF4F1082F80116AE15AE7801F3E4EF0E0F
:10044000F11C60E4C7010E947802F801B0826B2DB4
:10045000CE0101960E9478028981F70180830F9076
:10046000DF91CF911F910F91FF90EF90DF90CF9090
:10047000BF900895CF93DF93EC01623061F0643058
:10048000B9F0613009F56A818B819C810E94440139
:1004900041E0698107C069818B819C810E94440190
:1004A00041E06A818B819C81DF91CF910C948E0118
:1004B00069818B819C810E9444016A818B819C812E
:1004C000DF91CF910C944401DF91CF91089520E109
:1004D000629FA0011124FC016081838194810C94AE
:1004E0007E01DC01ED91FC910190F081E02D0994F9
:1004F000FC0160830895FF920F931F93CF93DF93C6
:1005000000D0CDB7DEB7162FF52E032FFC0160818A
:100510008AEC91E02A8349830E943604E091CA0163
:10052000F091CB0184E0189FB00111246A5F7F4FE6
:100530000190F081E02D8AEC91E009954981642FCA
:100540007F2D8AEC91E00E9471026F2D70E08AECA1
:1005500091E00E9471022A81622F702F8AEC91E053
:100560000E947102602F70E08AEC91E00E9471029B
:100570008AEC91E00F900F90DF91CF911F910F9136
:10058000FF900C9453041F93CF93DF93EC01162F2D
:1005900068818AEC91E00E943604612F8AEC91E038
:1005A0000E94DC038AEC91E00E94530441E06881E0
:1005B0008AEC91E00E9433048AEC91E00E94890366
:1005C000DF91CF911F9108951F93CF93DF931F92D7
:1005D000CDB7DEB7162FFC0160818AEC91E049832C
:1005E0000E943604612F8AEC91E00E94DC0349816D
:1005F000642F8AEC91E00E94DC038AEC91E00F907A
:10060000DF91CF911F910C945304EF92FF920F93BF
:100610001F93CF93DF93EC019A01AB0160E27CEB77
:100620008EEB95E40E94ED0B20E030E040E85FE3C4
:100630000E94840B7B018C0168E371E083E992E006
:100640000E94D70722E030E04E2D5F2D602F712FE2
:1006500083E992E00E94800920E030E040E05FE31F
:100660006E2D7F2D802F912F0E94850B0E94C30C31
:100670000E945A0C062F6EE471E083E992E00E941A
:10068000D7074AE050E0602F83E992E00E947308A8
:1006900060E0CE010E94C302182F482F4F764061C0
:1006A00060E0CE010E94E402402F6EEFCE010E9476
:1006B000E402412F60E0CE010E94E40265E070E0B8
:1006C00080E090E00E943E07412F416A60E0CE0149
:1006D000DF91CF911F910F91FF90EF900C94E40266
:1006E00040E060E00C94E402CF93DF93EC018AECED
:1006F00091E00E941C04CE01DF91CF910C94700315
:100700002091FA0130E08091FB01281B3109C901D9
:1007100008958091FB019091FA01891750F4E82F18
:10072000F0E0E450FE4F208130E08F5F8093FB01CA
:1007300002C02FEF3FEFC9010895E091FB018091C6
:10074000FA01E81730F4F0E0E450FE4F208130E089
:1007500002C02FEF3FEFC90108950895CF92DF92B5
:10076000EF92FF920F931F93CF93DF937C01CB0106
:100770008A012091D601222391F0EB016B01C40E76
:10078000D51E09C06991D701ED91FC910190F081CE
:10079000E02DC7010995CC15DD05A1F703C0642F35
:1007A0000E941005C801DF91CF911F910F91FF901A
:1007B000EF90DF90CF900895CF93DF931F92CDB746
:1007C000DEB769832091D6012223D1F02091D70191
:1007D000203240F021E030E0FC013383228320E02E
:1007E00030E015C08091D801E82FF0E0E752FE4FCD
:1007F000998190838F5F8093D8018093D70105C042
:1008000061E0CE0101960E94100521E030E0C901AF
:100810000F90DF91CF910895FC011382128248EE70
:1008200053E060E070E0448355836683778384E619
:1008300091E09183808308951092FB011092FA0158
:100840001092D8011092D7010C945A04862F41328D
:1008500008F040E26CEF71E00E9478041092FB0116
:100860008093FA01089521E00C94260481E080939E
:10087000D6016093F9011092D8011092D701089522
:100880000F93062F21E04091D70169ED71E080912F
:10089000F9010E94BD041092D8011092D701109264
:1008A000D6010F91089561E00C9440048AEC91E028
:1008B0000C940C041092250281E080932302109284
:1008C000220261E082E10E94930661E083E10E94DE
:1008D0009306E9EBF0E080818E7F808380818D7FBD
:1008E000808388E48093B80085E48093BC000895F9
:1008F000413208F03FC0909125029111FCCF91E068
:1009000090932502209323022FEF20931C02109234
:100910002102242F215020932002909324029091B1
:100920002402880F892B8093240280912202813037
:1009300041F410922202809124028093BB0085EC46
:1009400001C085EE8093BC00809125028130E1F3E7
:1009500080912102841710F44091210226E232E0B6
:10096000FB01D90102C08D9181938A2F821B8417CC
:10097000D0F301C040E0842F08950F93413208F076
:1009800046C0909125029111FCCF92E090932502F0
:10099000009323029FEF90931C0210922102409338
:1009A0002002FB0166E272E0DB0102C091919D939F
:1009B0009A2F961B9417D0F3109224029091240240
:1009C000880F892B8093240280912202813041F488
:1009D00010922202809124028093BB0085EC01C01A
:1009E00085EE8093BC00222321F080912502823085
:1009F000E1F380911C028F3F61F080911C028032F4
:100A000051F080911C02803341F483E007C081E003
:100A100005C080E003C082E001C084E00F9108952A
:100A2000613298F420912502243089F460931E02EB
:100A3000FC0186E492E0DC0102C021912D932A2F73
:100A4000281B2617D0F380E0089581E0089582E006
:100A5000089585ED8093BC008091BC0084FDFCCF9F
:100A600010922502089585EC8093BC001092250217
:100A700008951F920F920FB60F9211242F933F9358
:100A80004F935F936F937F938F939F93AF93BF9396
:100A9000EF93FF938091B900887F803609F49FC05F
:100AA00058F5883209F45BC090F4803109F452C0E3
:100AB00038F4882309F4F8C0883009F0F9C04AC036
:100AC000883109F44CC0803209F0F2C05CC0803437
:100AD00009F46BC038F4803309F455C0883309F049
:100AE000E7C054C0803509F454C0883509F462C0A9
:100AF000883409F0DDC0DAC0883909F4CBC0A8F425
:100B0000883709F46CC038F4883609F468C0803737
:100B100009F0CEC064C0883809F4BCC0803909F43B
:100B200064C0803809F0C4C060C0803B09F48AC04A
:100B300038F4803A09F46BC0883A09F0B9C082C031
:100B4000803C09F4ABC0883C09F4A8C0883B09F09C
:100B5000AFC08DC0809124028093BB0012C09091E1
:100B6000210280912002981788F580912102E82FB8
:100B7000F0E0EA5DFD4F90819093BB008F5F809322
:100B8000210285EC88C080931C0290C080931C02D7
:100B900056C0809121029091BB00E82FF0E0EA5D01
:100BA000FD4F90838F5F809321029091210280916D
:100BB00020026DC0809121029091BB00E82FF0E0EF
:100BC000EA5DFD4F90838F5F809321028091230225
:100BD00081116CC081E08093220284EA60C083E0CE
:100BE0008093250210921D02CCCF80911D0280328D
:100BF00008F050C080911D029091BB00E82FF0E0FA
:100C0000E659FD4F90838F5F80931D02BACF80918C
:100C10001D02803230F4E0911D02F0E0E659FD4FF4
:100C200010820E94290560911D02E0916602F091F8
:100C3000670270E08AE692E0099510921D020E9418
:100C4000330536C084E08093250210921F02109273
:100C50001E02E0916802F0916902099580911E02DE
:100C6000811105C081E080931E021092460280919E
:100C70001F02E82FF0E0EA5BFD4F90819093BB00EC
:100C80008F5F80931F0290911F0280911E02981720
:100C900008F477CF85E88093BC000AC085EC809388
:100CA000BC001092250204C010921C020E9429056B
:100CB000FF91EF91BF91AF919F918F917F916F9134
:100CC0005F914F913F912F910F900FBE0F901F900A
:100CD0001895833069F028F48130A1F0823011F545
:100CE00014C08630B1F08730C1F08430D9F404C02C
:100CF000809180008F7703C0809180008F7D8093EA
:100D00008000089584B58F7702C084B58F7D84BD3F
:100D100008958091B0008F7703C08091B0008F7DDF
:100D20008093B00008950F931F93CF93DF931F928A
:100D3000CDB7DEB7282F30E0F901E859FF4F849195
:100D4000F901E458FF4F1491F901E057FF4F049166
:100D50000023D1F0882321F069830E94690669810C
:100D6000E02FF0E0EE0FFF1FEC55FF4F85919491BF
:100D7000DC019FB7F8948C91611103C01095812319
:100D800001C0812B8C939FBF0F90DF91CF911F915A
:100D90000F9108951F920F920FB60F9211242F9367
:100DA0003F938F939F93AF93BF9380918A029091CB
:100DB0008B02A0918C02B0918D0230919202232F70
:100DC0002D5F2D3720F40196A11DB11D05C0232FE5
:100DD0002A570296A11DB11D2093920280938A0288
:100DE00090938B02A0938C02B0938D0280918E021F
:100DF00090918F02A0919002B09191020196A11D55
:100E0000B11D80938E0290938F02A0939002B093B5
:100E10009102BF91AF919F918F913F912F910F9030
:100E20000FBE0F901F9018950F931F939FB7F894C4
:100E300000918E0210918F022091900230919102C8
:100E400086B5A89B06C08F3F21F00F5F1F4F2F4F25
:100E50003F4F9FBF322F212F102F0027080F111D4A
:100E6000211D311D42E0000F111F221F331F4A9523
:100E7000D1F7B801C9011F910F910895CF92DF9268
:100E8000EF92FF92CF93DF936B017C010E941407D6
:100E9000EB010EC00E9414076C1B7D0B683E734073
:100EA00038F081E0C81AD108E108F108C851DC4FD8
:100EB000C114D104E104F10469F7DF91CF91FF90EF
:100EC000EF90DF90CF900895789484B5826084BDD0
:100ED00084B5816084BD85B5826085BD85B581603E
:100EE00085BDEEE6F0E0808181608083E1E8F0E09E
:100EF0001082808182608083808181608083E0E8CD
:100F0000F0E0808181608083E1EBF0E080818460AB
:100F10008083E0EBF0E0808181608083EAE7F0E0AD
:100F20008081846080838081826080838081816011
:100F300080838081806880831092C1000895CF9261
:100F4000DF92EF92FF920F931F93CF93DF936C0189
:100F5000EB017A01E60EF71E00E010E00BC069918C
:100F6000D601ED91FC910190F081E02DC60109952B
:100F7000080F191FCE15DF0591F7C801DF91CF913A
:100F80001F910F91FF90EF90DF90CF900895DB01BC
:100F90000D900020E9F7AD0141505109461B570B58
:100FA000DC01ED91FC910280F381E02D09940C9419
:100FB000C707DC01ED91FC910190F081E02D0994CF
:100FC0000F931F93CF93DF93EC016DE00E94D9073D
:100FD0008C016AE0CE010E94D9079C01200F311FCD
:100FE000C901DF91CF911F910F9108950F931F9326
:100FF000CF93DF93EC010E94C7078C01CE010E94C2
:10100000E0079801280F391FC901DF91CF911F9187
:101010000F9108954F925F926F927F929F92AF923D
:10102000BF92CF92DF92EF92FF920F931F93CF93D5
:10103000DF93CDB7DEB7A1970FB6F894DEBF0FBE32
:10104000CDBF5C016A017B01922E19A281E082175B
:1010500010F08AE0982E8E010F5D1F4F492C512C05
:10106000612C712CC701B601A30192010E94EE0D03
:101070008C2D929E80191124015011098A3014F48C
:10108000805D01C0895CF801808369017A01C11427
:10109000D104E104F10431F7B801C5010E94C7078A
:1010A000A1960FB6F894DEBF0FBECDBFDF91CF91F2
:1010B0001F910F91FF90EF90DF90CF90BF90AF9076
:1010C0009F907F906F905F904F900895211531050C
:1010D00041F4DC01ED91FC910190F081E02D642F51
:1010E00009940C940A080F931F93CF93DF93EC019C
:1010F0009A01462F50E060E070E00E9466088C0183
:10110000CE010E94E0079801280F391FC901DF9125
:10111000CF911F910F910895CF92DF92EF92FF929E
:101120000F931F93CF93DF93EC016A017B0121158D
:10113000310579F4E881F9810190F081E02D642F87
:10114000DF91CF911F910F91FF90EF90DF90CF90A3
:1011500009942A30310519F477FD0EC02AE0B70151
:10116000A601CE01DF91CF911F910F91FF90EF90DB
:10117000DF90CF900C940A086DE20E94D9078C0191
:1011800044275527BA014C195D096E097F092AE0E9
:10119000CE010E940A08080F191FC801DF91CF91E4
:1011A0001F910F91FF90EF90DF90CF9008957F9265
:1011B0008F929F92AF92BF92CF92DF92EF92FF9267
:1011C0000F931F93CF93DF938C014A015B01F22EA3
:1011D00020E030E0A901C501B4010E94E90B87FFBE
:1011E0000AC06DE2C8010E94D907EC01B7FAB094B9
:1011F000B7F8B09402C0C0E0D0E0E12C60E070E04D
:1012000080E09FE307C020E030E040E251E40E942C
:10121000ED0BE394EF10F7CF262F372F482F592FE0
:10122000C501B4010E94850B762E872E982EA92E1B
:101230000E945A0CB62EC72ED82EE92E0E94860C7C
:101240009B01AC01672D782D892D9A2D0E94840B6E
:10125000A62E972E882E792E2AE04B2D5C2D6D2DF3
:101260007E2DC8010E940A08C80FD91FFF20B9F1BE
:1012700060E771E0C8010E94C707C80FD91F2FC0DF
:1012800020E030E040E251E46A2D792D882D972D41
:101290000E948B0D762EC72ED82EE92E0E94550C5B
:1012A0004B01AA2497FCA094BA2C2AE030E0B501A7
:1012B000A401C8010E948C08C80FD91FC501B40140
:1012C0000E94880C9B01AC01672D7C2D8D2D9E2DDD
:1012D0000E94840BA62E972E882E792EFA94F11058
:1012E000CFCFCE01DF91CF911F910F91FF90EF9063
:1012F000DF90CF90BF90AF909F908F907F90089598
:101300000F931F93CF93DF93EC010E94D7088C01BA
:10131000CE010E94E0079801280F391FC901DF9113
:10132000CF911F910F9108950E9464070E9484003D
:10133000C0E7DAE00E94C2002097E1F30E94700A41
:10134000F9CFFC0184859585FC01E05CFF4F20818D
:101350003181FC01EE5BFF4F80819181281B390BAD
:101360002F733327C9010895FC0184859585FC01FD
:10137000E05CFF4F40815181FC01EE5BFF4F20811B
:1013800031814217530741F00190F081E02DE80FC1
:10139000F91F208130E002C02FEF3FEFC90108950F
:1013A000FC0184859585FC01E05CFF4F4081518103
:1013B000FC01EE5BFF4F208131814217530781F022
:1013C000A081B181A80FB91F8C91208131812F5F3D
:1013D0003F4F2F73332731832083282F30E002C003
:1013E0002FEF3FEFC9010895FC0186859785FC0129
:1013F000E05CFF4FDC01AE5BBF4F408151812D911E
:101400003C91119742175307C1F70895CF93DF938B
:10141000FC0186859785DC01A05CBF4F2D913C9136
:1014200011972F5F3F4F2F733327EC01CE5BDF4FB8
:101430004881598124173507D9F30D90BC91A02D0F
:10144000A80FB91F6C93A685B785A05CBF4F1196F6
:101450003C932E93A689B7892C9181E090E0058C6E
:1014600002C0880F991F0A94E2F7282B2C9381E081
:1014700090E0DF91CF91089508951F920F920FB6DB
:101480000F9211242F933F934F938F939F93EF933A
:10149000FF934091C60080913603909137030196E7
:1014A0008F7399272091380330913903821793075E
:1014B00059F0E0913603F0913703EA50FD4F408335
:1014C0009093370380933603FF91EF919F918F9113
:1014D0004F913F912F910F900FBE0F901F90189535
:1014E00083E992E00E94A109892B11F00C943C0A37
:1014F00008951F920F920FB60F9211242F933F93CE
:101500008F939F93EF93FF932091F2023091F30218
:101510008091F4029091F5022817390731F48091F7
:10152000C1008F7D8093C10014C0E091F402F0915E
:10153000F502EE54FD4F20818091F4029091F50266
:1015400001968F7399279093F5028093F40220936C
:10155000C600FF91EF919F918F913F912F910F9036
:101560000FBE0F901F901895CF92DF92EF92FF92CF
:10157000CF93DF93EC016A017B01411581EE58079F
:1015800061057105F9F0EC89FD8981E090E00E8C30
:1015900002C0880F991F0A94E2F7808360E079E027
:1015A0008DE390E0A70196010E94EE0D21503109D4
:1015B000410951095695479537952795211580E1A1
:1015C000380798F0EC89FD89108260E874E88EE1B4
:1015D00090E0A70196010E94EE0D215031094109CA
:1015E00051095695479537952795E889F9893083AC
:1015F000EA89FB892083EE89FF89408181E090E0C0
:101600009C010A8C02C0220F331F0A94E2F7422B7E
:101610004083EE89FF8940819C010B8C02C0220F20
:10162000331F0A94E2F7422B4083EE89FF89408101
:101630009C010C8C02C0220F331F0A94E2F7422B4C
:101640004083EE89FF8920810D8C02C0880F991F8D
:101650000A94E2F7809582238083DF91CF91FF90F7
:10166000EF90DF90CF90089510929602109295021D
:1016700088EE93E0A0E0B0E0809397029093980208
:10168000A0939902B0939A0286E791E09093940216
:101690008093930286EF92E09093A00280939F0242
:1016A00082EB92E09093A2028093A10285EC90E0FD
:1016B0009093A4028093A30284EC90E09093A602FE
:1016C0008093A50280EC90E09093A8028093A702FB
:1016D00081EC90E09093AA028093A90286EC90E0BE
:1016E0009093AC028093AB0284E08093AD0283E0E0
:1016F0008093AE0287E08093AF0285E08093B002D2
:1017000081E08093B10208955058BB27AA270ED0DC
:10171000B1C1A2D130F0A7D120F031F49F3F11F434
:101720001EF497C10EF4E095E7FB64C1E92FB3D135
:1017300080F3BA17620773078407950718F071F4EE
:101740009EF5E2C10EF4E0950B2EBA2FA02D0B01F1
:10175000B90190010C01CA01A0011124FF27591BF6
:1017600099F0593F50F4503E68F11A16F040A22FFC
:10177000232F342F4427585FF3CF4695379527956D
:10178000A795F0405395C9F77EF41F16BA0B620B6C
:10179000730B840BBAF09150A1F0FF0FBB1F661FB3
:1017A000771F881FC2F70EC0BA0F621F731F841FF6
:1017B00048F4879577956795B795F7959E3F08F01C
:1017C000B3CF9395880F08F09927EE0F97958795DB
:1017D0000895ECD008F481E008950CD04BC143D1BA
:1017E00040F03AD130F021F45F3F19F003C15111BC
:1017F0008CC12FC150D198F39923C9F35523B1F36C
:10180000951B550BBB27AA2762177307840738F06F
:101810009F5F5F4F220F331F441FAA1FA9F333D0CE
:101820000E2E3AF0E0E830D091505040E695001C82
:10183000CAF729D0FE2F27D0660F771F881FBB1F3E
:10184000261737074807AB07B0E809F0BB0B802D18
:10185000BF01FF2793585F4F2AF09E3F510568F064
:10186000C9C053C15F3FECF3983EDCF38695779592
:101870006795B795F7959F5FC9F7880F911D969566
:10188000879597F90895E1E0660F771F881FBB1FC2
:10189000621773078407BA0720F0621B730B840B6F
:1018A000BA0BEE1F88F7E095089504D06894B11143
:1018B0002CC10895F8D088F09F5790F0B92F992740
:1018C000B751A0F0D1F0660F771F881F991F1AF04B
:1018D000BA95C9F712C0B13081F016D1B1E00895C0
:1018E00013C1672F782F8827B85F39F0B93FCCF341
:1018F000869577956795B395D9F73EF49095809541
:10190000709561957F4F8F4F9F4F0895E89409C060
:1019100097FB3EF490958095709561957F4F8F4F22
:101920009F4F9923A9F0F92F96E9BB279395F69538
:10193000879577956795B795F111F8CFFAF4BB0FB6
:1019400011F460FF1BC06F5F7F4F8F4F9F4F16C01A
:10195000882311F096E911C0772321F09EE8872FA4
:10196000762F05C0662371F096E8862F70E060E060
:101970002AF09A95660F771F881FDAF7880F9695D9
:10198000879597F90895A9D080F09F3740F4911179
:101990000EF0BBC060E070E080E89FEB089526F495
:1019A0001B16611D711D811D2BC045C0990F0008BC
:1019B000550FAA0BE0E8FEEF16161706E807F90721
:1019C000C0F012161306E407F50798F0621B730BBC
:1019D000840B950B39F40A2661F0232B242B252B3D
:1019E00021F408950A2609F4A140A6958FEF811DE0
:1019F000811D089597F99F6780E870E060E0089581
:101A0000882371F4772321F09850872B762F07C015
:101A1000662311F499270DC09051862B70E060E089
:101A20002AF09A95660F771F881FDAF7880F969528
:101A3000879597F908959F3F31F0915020F487954D
:101A400077956795B795880F911D9695879597F926
:101A500008959FEF80EC089500240A941616170647
:101A600018060906089500240A941216130614068F
:101A700005060895092E0394000C11F4882352F0F2
:101A8000BB0F40F4BF2B11F460FF04C06F5F7F4FAA
:101A90008F4F9F4F089557FD9058440F551F59F091
:101AA0005F3F71F04795880F97FB991F61F09F3F4B
:101AB00079F087950895121613061406551FF2CF74
:101AC0004695F1DF08C0161617061806991FF1CFC4
:101AD00086957105610508940895E5DFA0F0BEE7DD
:101AE000B91788F4BB279F3860F41616B11D672F0D
:101AF000782F8827985FF7CF869577956795B11DE2
:101B000093959639C8F30895E894BB2766277727FD
:101B1000CB0197F908950BD0ADCF9EDF28F0A3DF5E
:101B200018F0952309F066CF94CF1124EECFB3DFE0
:101B3000A0F3959FD1F3950F50E0551F629FF001E0
:101B4000729FBB27F00DB11D639FAA27F00DB11D39
:101B5000AA1F649F6627B00DA11D661F829F2227C2
:101B6000B00DA11D621F739FB00DA11D621F839F49
:101B7000A00D611D221F749F3327A00D611D231F1F
:101B8000849F600D211D822F762F6A2F11249F576D
:101B900050408AF0E1F088234AF0EE0FFF1FBB1F90
:101BA000661F771F881F91505040A9F79E3F51052F
:101BB00070F020CFAACF5F3FECF3983EDCF3869520
:101BC00077956795B795F795E7959F5FC1F7FE2BDA
:101BD000880F911D9695879597F90895A1E21A2E81
:101BE000AA1BBB1BFD010DC0AA1FBB1FEE1FFF1FC1
:101BF000A217B307E407F50720F0A21BB30BE40B11
:101C0000F50B661F771F881F991F1A9469F7609557
:101C10007095809590959B01AC01BD01CF01089511
:101C2000EE0FFF1F0590F491E02D0994F894FFCF7B
:101C30004164616672756974204D6F746F72736868
:101C400069656C64207632202D204443204D6F74EA
:101C50006F72207465737421007469636B00746F14
:101C6000636B007465636800457374696D617465C6
:101C700064207072652D7363616C653A200046695B
:101C80006E616C207072652D7363616C653A200023
:101C900000000000DC03AE03800389039D03AD0355
:101CA0002E0000000000060A9F07A109D009B40910
:021CB000F40935
:00000001FF
