:100000000C945F000C9487000C9487000C9487007C
:100010000C9487000C9487000C9487000C94870044
:100020000C9487000C9487000C9487000C94870034
:100030000C9487000C9487000C9487000C94870024
:100040000C94A2050C9487000C943B070C94770742
:100050000C9487000C9487000C9487000C94870004
:100060000C94D9030C9487000000000700020100E3
:100070000003040600000000000000000102040864
:100080001020408001020408102001020408102002
:10009000040404040404040402020202020203032E
:1000A0000303030300000000250028002B000000CC
:1000B0000000240027002A003801590332081124C7
:1000C0001FBECFEFD8E0DEBFCDBF11E0A0E0B1E0B2
:1000D000E8E5F1E102C005900D92A237B107D9F72A
:1000E00013E0A2E7B1E001C01D92A833B107E1F728
:1000F00010E0CEEBD0E004C02297FE010E94A608DB
:10010000C83BD107C9F70E9492060C94AA080C9428
:100110000000CF93DF9340E855E260E070E081E9B2
:1001200092E00E94B207C0E0D1E08881229661E0AF
:100130000E94330581E0CC30D807B9F768EC809194
:100140008201909183010E94410268EC80918001BC
:1001500090918101DF91CF910C9441020F931F93F5
:10016000CF93DF9361E0809100010E946B05809145
:100170007301813071F461E080918201909183017B
:100180000E94140261E080918001909181010E949F
:10019000140281E992E00E949F06181619060CF0DD
:1001A00062C06CE071E081E992E00E947E0681E924
:1001B00092E00E94CE068C019C012053310926302A
:1001C000310588F5220F331FF901EC58FE4F61E02D
:1001D00080819181892B09F060E0E901CC58DE4FE4
:1001E00068831982F901E050FF4F80810E946B05FE
:1001F0006DE171E081E992E00E945F06602F81E984
:1002000092E00E94040762E271E081E992E00E94BC
:100210005F0688819981892B19F06BE271E01BC020
:100220006EE271E018C026303105E9F481E090916A
:100230007301911180E08093730191E0209172012C
:10024000211190E090937201813019F462E371E022
:1002500002C062E471E081E992E0DF91CF911F91E9
:100260000F910C947E06DF91CF911F910F9108950D
:1002700060E684E891E00E94CC0161E084E891E0CE
:100280000E947401909383018093820162E084E86C
:1002900091E00E9474019093810180938001089500
:1002A00020E030E040E050E08D5B9F4F0C94550221
:1002B0009A018D5B9F4F211540E1340728F020E023
:1002C00030E040E050E102C040E050E00C945502C4
:1002D000411102C00C94500120E030E040E050E1B8
:1002E0008D5B9F4F0C945502CF93653008F047C04B
:1002F0006150C6E0462F50E0FC01C69FE00DF11DA5
:1003000011242085211130C060879A012F5F3F4F53
:10031000C29FF001C39FF00D1124E80FF91F9183D4
:100320008083662339F0613049F0623059F06330E0
:1003300081F40CC079E0AAE0B8E00BC07CE0ABE04F
:10034000BDE007C073E0A4E0B2E003C076E0A5E042
:10035000B7E026E0249FF001259FF00D1124E80F5F
:10036000F91FB383A483758366E0649F9001659F42
:10037000300D11242D5F3F4F280F391F02C020E0A0
:1003800030E0C901CF910895FC01148213821582D7
:100390001282118210820895BF92CF92DF92EF9263
:1003A000FF920F931F93CF93DF931F92CDB7DEB7CA
:1003B0008C01B62E7C0183E0E80EF11C6801EBE1B4
:1003C000CE0ED11CC7010E94C401F6E0EF0EF11C55
:1003D000EC14FD04B9F7F80113A616A612A611A68F
:1003E00017AEEE5BFF4F1082F80116AE15AE780126
:1003F000F3E4EF0EF11C60E4C7010E945202F80121
:10040000B0826B2DCE0101960E9452028981F701C4
:1004100080830F90DF91CF911F910F91FF90EF900C
:10042000DF90CF90BF900895CF93DF93EC016230BF
:1004300061F06430B9F0613009F56A818B819C818B
:100440000E94500141E0698107C069818B819C81D4
:100450000E94500141E06A818B819C81DF91CF91A4
:100460000C94680169818B819C810E9450016A8192
:100470008B819C81DF91CF910C945001DF91CF91C2
:10048000089520E1629FA0011124FC016081838115
:1004900094810C945801DC01ED91FC910190F08164
:1004A000E02D0994FC0160830895FF920F931F9340
:1004B000CF93DF9300D0CDB7DEB7162FF52E032FE5
:1004C000FC01608188EC91E02A8349830E94390312
:1004D000E091C801F091C90184E0189FB001112496
:1004E0006A5F7F4F0190F081E02D88EC91E00995E3
:1004F0004981642F7F2D88EC91E00E944B026F2D83
:1005000070E088EC91E00E944B022A81622F702FEC
:1005100088EC91E00E944B02602F70E088EC91E043
:100520000E944B0288EC91E00F900F90DF91CF91E9
:100530001F910F91FF900C9456032091F80130E029
:100540008091F901281B3109C90108958091F901B1
:100550009091F801891750F4E82FF0E0E650FE4F33
:10056000208130E08F5F8093F90102C02FEF3FEFD1
:10057000C9010895E091F9018091F801E81730F47C
:10058000F0E0E650FE4F208130E002C02FEF3FEF59
:10059000C90108950895CF92DF92EF92FF920F93D1
:1005A0001F93CF93DF937C01CB018A012091D4016B
:1005B000222391F0EB016B01C40ED51E09C0699195
:1005C000D701ED91FC910190F081E02DC7010995D3
:1005D000CC15DD05A1F703C0642F0E94B003C8014C
:1005E000DF91CF911F910F91FF90EF90DF90CF900F
:1005F0000895CF93DF931F92CDB7DEB76983209123
:10060000D4012223D1F02091D501203240F021E005
:1006100030E0FC013383228320E030E015C080917C
:10062000D601E82FF0E0E952FE4F998190838F5F69
:100630008093D6018093D50105C061E0CE0101967B
:100640000E94B00321E030E0C9010F90DF91CF910B
:100650000895FC011382128248EE53E060E070E0DE
:10066000448355836683778386E591E09183808315
:10067000089581E08093D4016093F7011092D60130
:100680001092D50108950F93062F21E04091D501D6
:1006900067ED71E08091F7010E945D031092D60131
:1006A0001092D5011092D4010F91089561E00C943D
:1006B000430388EC91E00C9429030F93413208F036
:1006C00046C0909123029111FCCF92E090932302B7
:1006D000009321029FEF90931A0210921F02409301
:1006E0001E02FB0164E272E0DB0102C091919D9366
:1006F0009A2F961B9417D0F3109222029091220207
:10070000880F892B8093220280912002813041F44E
:1007100010922002809122028093BB0085EC01C0E0
:1007200085EE8093BC00222321F080912302823049
:10073000E1F380911A028F3F61F080911A028032BA
:1007400051F080911A02803341F483E007C081E0C8
:1007500005C080E003C082E001C084E00F910895ED
:10076000613298F420912302243089F460931C02B2
:10077000FC0184E492E0DC0102C021912D932A2F38
:10078000281B2617D0F380E0089581E0089582E0C9
:10079000089585ED8093BC008091BC0084FDFCCF62
:1007A00010922302089585EC8093BC0010922302DE
:1007B00008951F920F920FB60F9211242F933F931B
:1007C0004F935F936F937F938F939F93AF93BF9359
:1007D000EF93FF938091B900887F803609F49FC022
:1007E00058F5883209F45BC090F4803109F452C0A6
:1007F00038F4882309F4F8C0883009F0F9C04AC0F9
:10080000883109F44CC0803209F0F2C05CC08034F9
:1008100009F46BC038F4803309F455C0883309F00B
:10082000E7C054C0803509F454C0883509F462C06B
:10083000883409F0DDC0DAC0883909F4CBC0A8F4E7
:10084000883709F46CC038F4883609F468C08037FA
:1008500009F0CEC064C0883809F4BCC0803909F4FE
:1008600064C0803809F0C4C060C0803B09F48AC00D
:1008700038F4803A09F46BC0883A09F0B9C082C0F4
:10088000803C09F4ABC0883C09F4A8C0883B09F05F
:10089000AFC08DC0809122028093BB0012C09091A6
:1008A0001F0280911E02981788F580911F02E82F81
:1008B000F0E0EC5DFD4F90819093BB008F5F8093E3
:1008C0001F0285EC88C080931A0290C080931A02A0
:1008D00056C080911F029091BB00E82FF0E0EC5DC4
:1008E000FD4F90838F5F80931F0290911F02809134
:1008F0001E026DC080911F029091BB00E82FF0E0B6
:10090000EC5DFD4F90838F5F80931F0280912102E9
:1009100081116CC081E08093200284EA60C083E092
:100920008093230210921B02CCCF80911B02803255
:1009300008F050C080911B029091BB00E82FF0E0BE
:10094000E859FD4F90838F5F80931B02BACF80914F
:100950001B02803230F4E0911B02F0E0E859FD4FB9
:1009600010820E94C90360911B02E0916402F09121
:10097000650270E088E692E0099510921B020E94E1
:10098000D30336C084E08093230210921D0210929C
:100990001C02E0916602F0916702099580911C02A9
:1009A000811105C081E080931C0210924402809165
:1009B0001D02E82FF0E0EC5BFD4F90819093BB00AF
:1009C0008F5F80931D0290911D0280911C029817E9
:1009D00008F477CF85E88093BC000AC085EC80934B
:1009E000BC001092230204C010921A020E94C90394
:1009F000FF91EF91BF91AF919F918F917F916F91F7
:100A00005F914F913F912F910F900FBE0F901F90CC
:100A10001895833069F028F48130A1F0823011F507
:100A200014C08630B1F08730C1F08430D9F404C0EE
:100A3000809180008F7703C0809180008F7D8093AC
:100A40008000089584B58F7702C084B58F7D84BD02
:100A500008958091B0008F7703C08091B0008F7DA2
:100A60008093B0000895CF93DF9390E0FC01E458A9
:100A7000FF4F4491FC01E057FF4F8491882341F1DF
:100A800090E0880F991FFC01E255FF4F25913491AA
:100A9000D9018C559F4FFC0185919491C82FD92F76
:100AA0009FB7F8948C91611106C0409584238C9374
:100AB0008881842308C0623041F4242F209582234A
:100AC0008C938881842B888302C0842B8C939FBF56
:100AD000DF91CF9108950F931F93CF93DF931F92D0
:100AE000CDB7DEB7282F30E0F901E859FF4F8491E8
:100AF000F901E458FF4F1491F901E057FF4F0491B9
:100B00000023D1F0882321F069830E9409056981BF
:100B1000E02FF0E0EE0FFF1FEC55FF4F8591949111
:100B2000DC019FB7F8948C91611103C0109581236B
:100B300001C0812B8C939FBF0F90DF91CF911F91AC
:100B40000F9108951F920F920FB60F9211242F93B9
:100B50003F938F939F93AF93BF938091880290911F
:100B60008902A0918A02B0918B0230919002232FCA
:100B70002D5F2D3720F40196A11DB11D05C0232F37
:100B80002A570296A11DB11D2093900280938802DE
:100B900090938902A0938A02B0938B0280918C0279
:100BA00090918D02A0918E02B0918F020196A11DAD
:100BB000B11D80938C0290938D02A0938E02B0930E
:100BC0008F02BF91AF919F918F913F912F910F9085
:100BD0000FBE0F901F901895789484B5826084BDE5
:100BE00084B5816084BD85B5826085BD85B5816031
:100BF00085BDEEE6F0E0808181608083E1E8F0E091
:100C00001082808182608083808181608083E0E8BF
:100C1000F0E0808181608083E1EBF0E0808184609E
:100C20008083E0EBF0E0808181608083EAE7F0E0A0
:100C30008081846080838081826080838081816004
:100C400080838081806880831092C1000895CF9254
:100C5000DF92EF92FF920F931F93CF93DF936C017C
:100C6000EB017A01E60EF71E00E010E00BC069917F
:100C7000D601ED91FC910190F081E02DC60109951E
:100C8000080F191FCE15DF0591F7C801DF91CF912D
:100C90001F910F91FF90EF90DF90CF900895DB01AF
:100CA0000D900020E9F7AD0141505109461B570B4B
:100CB000DC01ED91FC910280F381E02D09940C940C
:100CC0004F06DC01ED91FC910190F081E02D09943B
:100CD0000F931F93CF93DF93EC016DE00E946106A9
:100CE0008C016AE0CE010E9461069C01200F311F39
:100CF000C901DF91CF911F910F9108950F931F9319
:100D0000CF93DF93EC010E944F068C01CE010E942D
:100D100068069801280F391FC901DF91CF911F91F3
:100D20000F9108950E94EC050E948900CEE6D7E05D
:100D30000E94AE002097E1F30E946E07F9CFFC01FC
:100D400084859585FC01E05CFF4F20813181FC01A9
:100D5000EE5BFF4F80819181281B390B2F73332766
:100D6000C9010895FC0184859585FC01E05CFF4F75
:100D700040815181FC01EE5BFF4F208131814217A0
:100D8000530741F00190F081E02DE80FF91F208119
:100D900030E002C02FEF3FEFC9010895FC018485C8
:100DA0009585FC01E05CFF4F40815181FC01EE5BC9
:100DB000FF4F208131814217530781F0A081B1811B
:100DC000A80FB91F8C91208131812F5F3F4F2F7366
:100DD000332731832083282F30E002C02FEF3FEFED
:100DE000C9010895FC0186859785FC01E05CFF4FF1
:100DF000DC01AE5BBF4F408151812D913C91119739
:100E000042175307C1F70895CF93DF93FC018685FE
:100E10009785DC01A05CBF4F2D913C9111972F5F0E
:100E20003F4F2F733327EC01CE5BDF4F4881598151
:100E300024173507D9F30D90BC91A02DA80FB91F29
:100E40006C93A685B785A05CBF4F11963C932E93FB
:100E5000A689B7892C9181E090E0058C02C0880FAB
:100E6000991F0A94E2F7282B2C9381E090E0DF9100
:100E7000CF91089508951F920F920FB60F921124EB
:100E80002F933F934F938F939F93EF93FF934091B3
:100E9000C600809134039091350301968F73992792
:100EA00020913603309137038217930759F0E09170
:100EB0003403F0913503EC50FD4F4083909335039C
:100EC00080933403FF91EF919F918F914F913F91C8
:100ED0002F910F900FBE0F901F90189581E992E00F
:100EE0000E949F06892B11F00C943A0708951F92D7
:100EF0000F920FB60F9211242F933F938F939F93CE
:100F0000EF93FF932091F0023091F1028091F20271
:100F10009091F3022817390731F48091C1008F7D39
:100F20008093C10014C0E091F202F091F302E05509
:100F3000FD4F20818091F2029091F30201968F7310
:100F400099279093F3028093F2022093C600FF91B9
:100F5000EF919F918F913F912F910F900FBE0F9026
:100F60001F901895CF92DF92EF92FF92CF93DF936D
:100F7000EC016A017B01411581EE5807610571059D
:100F8000F9F0EC89FD8981E090E00E8C02C0880FB9
:100F9000991F0A94E2F7808360E079E08DE390E0A6
:100FA000A70196010E948208215031094109510987
:100FB0005695479537952795211580E1380798F084
:100FC000EC89FD89108260E874E88EE190E0A70169
:100FD00096010E9482082150310941095109569514
:100FE000479537952795E889F9893083EA89FB8900
:100FF0002083EE89FF89408181E090E09C010A8C8A
:1010000002C0220F331F0A94E2F7422B4083EE897D
:10101000FF8940819C010B8C02C0220F331F0A9470
:10102000E2F7422B4083EE89FF8940819C010C8CC2
:1010300002C0220F331F0A94E2F7422B4083EE894D
:10104000FF8920810D8C02C0880F991F0A94E2F756
:10105000809582238083DF91CF91FF90EF90DF9086
:10106000CF900895109294021092930288EE93E02C
:10107000A0E0B0E08093950290939602A09397022F
:10108000B093980286E691E0909392028093910249
:1010900084EF92E090939E0280939D0280EB92E019
:1010A0009093A00280939F0285EC90E09093A2021F
:1010B0008093A10284EC90E09093A4028093A30219
:1010C00080EC90E09093A6028093A50281EC90E0E2
:1010D0009093A8028093A70286EC90E09093AA02D6
:1010E0008093A90284E08093AB0283E08093AC02FA
:1010F00087E08093AD0285E08093AE0281E080932B
:10110000AF020895A1E21A2EAA1BBB1BFD010DC060
:10111000AA1FBB1FEE1FFF1FA217B307E407F507A7
:1011200020F0A21BB30BE40BF50B661F771F881F83
:10113000991F1A9469F760957095809590959B0119
:10114000AC01BD01CF010895EE0FFF1F0590F49192
:08115000E02D0994F894FFCF93
:101158000D0009000A0003000500060052656369D6
:10116800657665642052657175657374004C6564B5
:101178002000207475726E656420006F6E006F66C3
:101188006600526F626F74205374617274696E677F
:101198002100526F626F742053746F7070696E67AC
:1011A800210000000000F902CB029D02A602BA024B
:1011B800CA0200000000040727069F06CE06B206F2
:0211C800F2062D
:00000001FF
